:020000040000FA
:020000003128A5
:040002000034003492
:08000800A6000308A7000B1D70
:1000100017280B1106308107A014A80B17287D3074
:10002000A8002016A10B172820150230A1002708D0
:1000300083002608090082073F3406345B344F34BE
:1000400066346D347D3407347F346F348207BF34B7
:100050008634DB34CF34E634ED34FD348734FF347A
:10006000EF3483160F3086008801D330810083126D
:10007000A201A301A401A50106128612061386138C
:100080008B168B17A0187A20A01D6728861C652860
:10009000201A7620201D42282011A20A0A302202AE
:1000A000031C4228A201A30A0A302302031C42288F
:1000B000A301A40A0A302402031C4228A401A50AB1
:1000C0000A3025020318A5014228A0114228061C67
:1000D0006E2806194228A201A3014228A01520116A
:1000E00020127D30A8000230A10042282012792879
:1000F00008000800A010061A8B28861A8228061B02
:1001000094289D28061206138613861224081B20A5
:1001100088000617080006120613861386122308A5
:1001200026208800861608000612061386138612FB
:1001300025081B2088008617080006120613861360
:0C014000861222081B208800061608000A
:02400E00723FFF
:00000001FF
