:020000040000FA
:1000000083160030860005108312A20122083920D1
:1000100020106430A10085180E281420051911281D
:10002000172085190B282720A2013920080005195F
:10003000082820181728A10B17282014A20A0A3014
:1000400022020318A2012208392017280800851966
:10005000082820182728A10B27282014A2030A30DB
:100060002202031836202208392027280930A2004E
:1000700008003C20860008008207FE343834DD3456
:0E0080007D343B347734F7343C34FF347F3426
:02008E0000343C
:0200900000343A
:02400E00703F01
:00000001FF
