:020000040000FA
:020000001B28BB
:040002000034003492
:08000800A4000308A5000B1D74
:1000100017280B1106308107A014A60B17287D3076
:10002000A6002016A10B172820150230A1002508D4
:100030008300240809008316003086000510D330A1
:1000400081008312A201A3018B168B17A0188020B8
:10005000A01D5D28851D5A28201A7920201D2628DC
:100060002011A20A0A302202031C2628A201A30A98
:100070000A3023020318A3012628A0188020A01DFF
:100080005D28851D5A28201A7920201D3D28201121
:10009000A2030A302202031C3D285420A3030A3085
:1000A0002302031857203D280930A2000800093018
:1000B000A3000800A01105102628851C7028051E25
:1000C0006428051D67282628A201A3012628A0155B
:1000D000201120127D30A6000230A10005143D2819
:1000E000A015201120127D30A6000230A1000514B9
:1000F00026282012051C7E2805100800051408007B
:10010000A010061E882823088C20EF3986000800DE
:1001100022088C20860008008207FE343834DD3443
:0E0120007D343B347734F7343C34FF347F3485
:02400E00703F01
:00000001FF
